{
  "_format": "hh-sol-artifact-1",
  "contractName": "familynft",
  "sourceName": "contracts/myfamilynft.sol",
  "abi": [
    {
      "inputs": [
        {
          "internalType": "string",
          "name": "_name",
          "type": "string"
        }
      ],
      "stateMutability": "nonpayable",
      "type": "constructor"
    },
    {
      "inputs": [],
      "name": "LSP4TokenNameNotEditable",
      "type": "error"
    },
    {
      "inputs": [],
      "name": "LSP4TokenSymbolNotEditable",
      "type": "error"
    },
    {
      "inputs": [],
      "name": "LSP8CannotSendToAddressZero",
      "type": "error"
    },
    {
      "inputs": [],
      "name": "LSP8CannotUseAddressZeroAsOperator",
      "type": "error"
    },
    {
      "inputs": [],
      "name": "LSP8InvalidTransferBatch",
      "type": "error"
    },
    {
      "inputs": [
        {
          "internalType": "bytes32",
          "name": "tokenId",
          "type": "bytes32"
        }
      ],
      "name": "LSP8NonExistentTokenId",
      "type": "error"
    },
    {
      "inputs": [
        {
          "internalType": "bytes32",
          "name": "tokenId",
          "type": "bytes32"
        },
        {
          "internalType": "address",
          "name": "caller",
          "type": "address"
        }
      ],
      "name": "LSP8NotTokenOperator",
      "type": "error"
    },
    {
      "inputs": [
        {
          "internalType": "address",
          "name": "tokenOwner",
          "type": "address"
        },
        {
          "internalType": "bytes32",
          "name": "tokenId",
          "type": "bytes32"
        },
        {
          "internalType": "address",
          "name": "caller",
          "type": "address"
        }
      ],
      "name": "LSP8NotTokenOwner",
      "type": "error"
    },
    {
      "inputs": [
        {
          "internalType": "address",
          "name": "tokenReceiver",
          "type": "address"
        }
      ],
      "name": "LSP8NotifyTokenReceiverContractMissingLSP1Interface",
      "type": "error"
    },
    {
      "inputs": [
        {
          "internalType": "address",
          "name": "tokenReceiver",
          "type": "address"
        }
      ],
      "name": "LSP8NotifyTokenReceiverIsEOA",
      "type": "error"
    },
    {
      "inputs": [
        {
          "internalType": "bytes32",
          "name": "tokenId",
          "type": "bytes32"
        }
      ],
      "name": "LSP8TokenIdAlreadyMinted",
      "type": "error"
    },
    {
      "anonymous": false,
      "inputs": [
        {
          "indexed": true,
          "internalType": "address",
          "name": "operator",
          "type": "address"
        },
        {
          "indexed": true,
          "internalType": "address",
          "name": "tokenOwner",
          "type": "address"
        },
        {
          "indexed": true,
          "internalType": "bytes32",
          "name": "tokenId",
          "type": "bytes32"
        }
      ],
      "name": "AuthorizedOperator",
      "type": "event"
    },
    {
      "anonymous": false,
      "inputs": [
        {
          "indexed": true,
          "internalType": "bytes32",
          "name": "dataKey",
          "type": "bytes32"
        }
      ],
      "name": "DataChanged",
      "type": "event"
    },
    {
      "anonymous": false,
      "inputs": [
        {
          "indexed": true,
          "internalType": "address",
          "name": "previousOwner",
          "type": "address"
        },
        {
          "indexed": true,
          "internalType": "address",
          "name": "newOwner",
          "type": "address"
        }
      ],
      "name": "OwnershipTransferred",
      "type": "event"
    },
    {
      "anonymous": false,
      "inputs": [
        {
          "indexed": true,
          "internalType": "address",
          "name": "operator",
          "type": "address"
        },
        {
          "indexed": true,
          "internalType": "address",
          "name": "tokenOwner",
          "type": "address"
        },
        {
          "indexed": true,
          "internalType": "bytes32",
          "name": "tokenId",
          "type": "bytes32"
        }
      ],
      "name": "RevokedOperator",
      "type": "event"
    },
    {
      "anonymous": false,
      "inputs": [
        {
          "indexed": false,
          "internalType": "address",
          "name": "operator",
          "type": "address"
        },
        {
          "indexed": true,
          "internalType": "address",
          "name": "from",
          "type": "address"
        },
        {
          "indexed": true,
          "internalType": "address",
          "name": "to",
          "type": "address"
        },
        {
          "indexed": true,
          "internalType": "bytes32",
          "name": "tokenId",
          "type": "bytes32"
        },
        {
          "indexed": false,
          "internalType": "bool",
          "name": "force",
          "type": "bool"
        },
        {
          "indexed": false,
          "internalType": "bytes",
          "name": "data",
          "type": "bytes"
        }
      ],
      "name": "Transfer",
      "type": "event"
    },
    {
      "inputs": [
        {
          "internalType": "address",
          "name": "to",
          "type": "address"
        }
      ],
      "name": "addAdmin",
      "outputs": [
        {
          "internalType": "address",
          "name": "",
          "type": "address"
        }
      ],
      "stateMutability": "pure",
      "type": "function"
    },
    {
      "inputs": [
        {
          "internalType": "uint256",
          "name": "_id",
          "type": "uint256"
        },
        {
          "internalType": "string",
          "name": "_action",
          "type": "string"
        }
      ],
      "name": "addHistory",
      "outputs": [],
      "stateMutability": "nonpayable",
      "type": "function"
    },
    {
      "inputs": [
        {
          "internalType": "string",
          "name": "color",
          "type": "string"
        },
        {
          "internalType": "string",
          "name": "size",
          "type": "string"
        },
        {
          "internalType": "string",
          "name": "style",
          "type": "string"
        }
      ],
      "name": "addOrder",
      "outputs": [],
      "stateMutability": "nonpayable",
      "type": "function"
    },
    {
      "inputs": [
        {
          "internalType": "address",
          "name": "operator",
          "type": "address"
        },
        {
          "internalType": "bytes32",
          "name": "tokenId",
          "type": "bytes32"
        }
      ],
      "name": "authorizeOperator",
      "outputs": [],
      "stateMutability": "nonpayable",
      "type": "function"
    },
    {
      "inputs": [
        {
          "internalType": "address",
          "name": "tokenOwner",
          "type": "address"
        }
      ],
      "name": "balanceOf",
      "outputs": [
        {
          "internalType": "uint256",
          "name": "",
          "type": "uint256"
        }
      ],
      "stateMutability": "view",
      "type": "function"
    },
    {
      "inputs": [
        {
          "internalType": "bytes32[]",
          "name": "dataKeys",
          "type": "bytes32[]"
        }
      ],
      "name": "getData",
      "outputs": [
        {
          "internalType": "bytes[]",
          "name": "dataValues",
          "type": "bytes[]"
        }
      ],
      "stateMutability": "view",
      "type": "function"
    },
    {
      "inputs": [
        {
          "internalType": "bytes32",
          "name": "dataKey",
          "type": "bytes32"
        }
      ],
      "name": "getData",
      "outputs": [
        {
          "internalType": "bytes",
          "name": "dataValue",
          "type": "bytes"
        }
      ],
      "stateMutability": "view",
      "type": "function"
    },
    {
      "inputs": [
        {
          "internalType": "bytes32",
          "name": "tokenId",
          "type": "bytes32"
        }
      ],
      "name": "getMetadata",
      "outputs": [
        {
          "internalType": "string",
          "name": "",
          "type": "string"
        }
      ],
      "stateMutability": "view",
      "type": "function"
    },
    {
      "inputs": [
        {
          "internalType": "bytes32",
          "name": "tokenId",
          "type": "bytes32"
        }
      ],
      "name": "getOperatorsOf",
      "outputs": [
        {
          "internalType": "address[]",
          "name": "",
          "type": "address[]"
        }
      ],
      "stateMutability": "view",
      "type": "function"
    },
    {
      "inputs": [
        {
          "internalType": "address",
          "name": "operator",
          "type": "address"
        },
        {
          "internalType": "bytes32",
          "name": "tokenId",
          "type": "bytes32"
        }
      ],
      "name": "isOperatorFor",
      "outputs": [
        {
          "internalType": "bool",
          "name": "",
          "type": "bool"
        }
      ],
      "stateMutability": "view",
      "type": "function"
    },
    {
      "inputs": [
        {
          "internalType": "address",
          "name": "to",
          "type": "address"
        },
        {
          "internalType": "string",
          "name": "data",
          "type": "string"
        }
      ],
      "name": "mint",
      "outputs": [],
      "stateMutability": "nonpayable",
      "type": "function"
    },
    {
      "inputs": [],
      "name": "owner",
      "outputs": [
        {
          "internalType": "address",
          "name": "",
          "type": "address"
        }
      ],
      "stateMutability": "view",
      "type": "function"
    },
    {
      "inputs": [
        {
          "internalType": "address",
          "name": "to",
          "type": "address"
        }
      ],
      "name": "removeAdmin",
      "outputs": [],
      "stateMutability": "nonpayable",
      "type": "function"
    },
    {
      "inputs": [
        {
          "internalType": "uint256",
          "name": "index",
          "type": "uint256"
        }
      ],
      "name": "removeOrder",
      "outputs": [],
      "stateMutability": "nonpayable",
      "type": "function"
    },
    {
      "inputs": [],
      "name": "renounceOwnership",
      "outputs": [],
      "stateMutability": "nonpayable",
      "type": "function"
    },
    {
      "inputs": [
        {
          "internalType": "address",
          "name": "operator",
          "type": "address"
        },
        {
          "internalType": "bytes32",
          "name": "tokenId",
          "type": "bytes32"
        }
      ],
      "name": "revokeOperator",
      "outputs": [],
      "stateMutability": "nonpayable",
      "type": "function"
    },
    {
      "inputs": [
        {
          "internalType": "bytes32[]",
          "name": "dataKeys",
          "type": "bytes32[]"
        },
        {
          "internalType": "bytes[]",
          "name": "dataValues",
          "type": "bytes[]"
        }
      ],
      "name": "setData",
      "outputs": [],
      "stateMutability": "nonpayable",
      "type": "function"
    },
    {
      "inputs": [
        {
          "internalType": "bytes32",
          "name": "dataKey",
          "type": "bytes32"
        },
        {
          "internalType": "bytes",
          "name": "dataValue",
          "type": "bytes"
        }
      ],
      "name": "setData",
      "outputs": [],
      "stateMutability": "nonpayable",
      "type": "function"
    },
    {
      "inputs": [
        {
          "internalType": "bytes4",
          "name": "interfaceId",
          "type": "bytes4"
        }
      ],
      "name": "supportsInterface",
      "outputs": [
        {
          "internalType": "bool",
          "name": "",
          "type": "bool"
        }
      ],
      "stateMutability": "view",
      "type": "function"
    },
    {
      "inputs": [
        {
          "internalType": "address",
          "name": "tokenOwner",
          "type": "address"
        }
      ],
      "name": "tokenIdsOf",
      "outputs": [
        {
          "internalType": "bytes32[]",
          "name": "",
          "type": "bytes32[]"
        }
      ],
      "stateMutability": "view",
      "type": "function"
    },
    {
      "inputs": [
        {
          "internalType": "bytes32",
          "name": "tokenId",
          "type": "bytes32"
        }
      ],
      "name": "tokenOwnerOf",
      "outputs": [
        {
          "internalType": "address",
          "name": "",
          "type": "address"
        }
      ],
      "stateMutability": "view",
      "type": "function"
    },
    {
      "inputs": [],
      "name": "totalSupply",
      "outputs": [
        {
          "internalType": "uint256",
          "name": "",
          "type": "uint256"
        }
      ],
      "stateMutability": "view",
      "type": "function"
    },
    {
      "inputs": [
        {
          "internalType": "address",
          "name": "from",
          "type": "address"
        },
        {
          "internalType": "address",
          "name": "to",
          "type": "address"
        },
        {
          "internalType": "bytes32",
          "name": "tokenId",
          "type": "bytes32"
        },
        {
          "internalType": "bool",
          "name": "force",
          "type": "bool"
        },
        {
          "internalType": "bytes",
          "name": "data",
          "type": "bytes"
        }
      ],
      "name": "transfer",
      "outputs": [],
      "stateMutability": "nonpayable",
      "type": "function"
    },
    {
      "inputs": [
        {
          "internalType": "address[]",
          "name": "from",
          "type": "address[]"
        },
        {
          "internalType": "address[]",
          "name": "to",
          "type": "address[]"
        },
        {
          "internalType": "bytes32[]",
          "name": "tokenId",
          "type": "bytes32[]"
        },
        {
          "internalType": "bool",
          "name": "force",
          "type": "bool"
        },
        {
          "internalType": "bytes[]",
          "name": "data",
          "type": "bytes[]"
        }
      ],
      "name": "transferBatch",
      "outputs": [],
      "stateMutability": "nonpayable",
      "type": "function"
    },
    {
      "inputs": [
        {
          "internalType": "address",
          "name": "newOwner",
          "type": "address"
        }
      ],
      "name": "transferOwnership",
      "outputs": [],
      "stateMutability": "nonpayable",
      "type": "function"
    }
  ],
  "bytecode": "0x60806040523480156200001157600080fd5b506040516200423838038062004238833981810160405281019062000037919062000588565b6040518060400160405280600981526020017f46414d494c594e465400000000000000000000000000000000000000000000008152506040518060400160405280600481526020017f464e4654000000000000000000000000000000000000000000000000000000008152503382828280620000be81620001af60201b620011911760201c565b506200012e7feafec4d89fa9619884b60000a4d96624a38f7ac2d8d9a604ecf07c12c77e480c60001b6040518060400160405280600481526020017fa4d9662400000000000000000000000000000000000000000000000000000000815250620002b760201b620012901760201c565b620001687fdeba1e292f8ba88238e10ab3c7f88bd4be4fac56cad5194b6ecceaf653468af160001b84620002b760201b620012901760201c565b620001a27f2f0a68ab07768e01943a599e73362a0e17a63a72e94dd2e384d2c1d4db93275660001b83620002b760201b620012901760201c565b505050505050506200063e565b620001bf6200031260201b60201c565b73ffffffffffffffffffffffffffffffffffffffff168173ffffffffffffffffffffffffffffffffffffffff1614620002b45760008060009054906101000a900473ffffffffffffffffffffffffffffffffffffffff169050816000806101000a81548173ffffffffffffffffffffffffffffffffffffffff021916908373ffffffffffffffffffffffffffffffffffffffff1602179055508173ffffffffffffffffffffffffffffffffffffffff168173ffffffffffffffffffffffffffffffffffffffff167f8be0079c531659141344cd1fd0a4f28419497f9722a3daafe3b4186f6b6457e060405160405180910390a3505b50565b80600160008481526020019081526020016000209080519060200190620002e09291906200033b565b50817fcdf4e344c0d23d4cdd0474039d176c55b19d531070dbe17856bfb993a5b5720b60405160405180910390a25050565b60008060009054906101000a900473ffffffffffffffffffffffffffffffffffffffff16905090565b828054620003499062000608565b90600052602060002090601f0160209004810192826200036d5760008555620003b9565b82601f106200038857805160ff1916838001178555620003b9565b82800160010185558215620003b9579182015b82811115620003b85782518255916020019190600101906200039b565b5b509050620003c89190620003cc565b5090565b5b80821115620003e7576000816000905550600101620003cd565b5090565b6000604051905090565b600080fd5b600080fd5b600080fd5b600080fd5b6000601f19601f8301169050919050565b7f4e487b7100000000000000000000000000000000000000000000000000000000600052604160045260246000fd5b620004548262000409565b810181811067ffffffffffffffff821117156200047657620004756200041a565b5b80604052505050565b60006200048b620003eb565b905062000499828262000449565b919050565b600067ffffffffffffffff821115620004bc57620004bb6200041a565b5b620004c78262000409565b9050602081019050919050565b60005b83811015620004f4578082015181840152602081019050620004d7565b8381111562000504576000848401525b50505050565b6000620005216200051b846200049e565b6200047f565b90508281526020810184848401111562000540576200053f62000404565b5b6200054d848285620004d4565b509392505050565b600082601f8301126200056d576200056c620003ff565b5b81516200057f8482602086016200050a565b91505092915050565b600060208284031215620005a157620005a0620003f5565b5b600082015167ffffffffffffffff811115620005c257620005c1620003fa565b5b620005d08482850162000555565b91505092915050565b7f4e487b7100000000000000000000000000000000000000000000000000000000600052602260045260246000fd5b600060028204905060018216806200062157607f821691505b60208210811415620006385762000637620005d9565b5b50919050565b613bea806200064e6000396000f3fe608060405234801561001057600080fd5b50600436106101735760003560e01c806370480275116100de5780639645337a11610097578063c0a721c511610071578063c0a721c51461047e578063cf5182ba1461049a578063d0def521146104b6578063f2fde38b146104d257610173565b80639645337a14610402578063a3b261f21461041e578063a5961b4c1461044e57610173565b8063704802751461034257806370a0823114610372578063715018a6146103a257806375236fe1146103ac5780637f23690c146103c85780638da5cb5b146103e457610173565b80632a3654a4116101305780632a3654a41461024a57806349a6078d1461027a5780634e3e6e9c146102aa578063511b6952146102da57806354f6127f146102f6578063559088681461032657610173565b806301ffc9a7146101785780630b0c6d82146101a857806314a6e293146101c45780631785f53c146101e057806318160ddd146101fc578063217b22701461021a575b600080fd5b610192600480360381019061018d9190612600565b6104ee565b60405161019f9190612648565b60405180910390f35b6101c260048036038101906101bd91906126f7565b61054f565b005b6101de60048036038101906101d99190612a26565b610690565b005b6101fa60048036038101906101f59190612a9e565b61073b565b005b610204610804565b6040516102119190612ae4565b60405180910390f35b610234600480360381019061022f9190612aff565b61080e565b6040516102419190612b3b565b60405180910390f35b610264600480360381019061025f91906126f7565b6108c2565b6040516102719190612648565b60405180910390f35b610294600480360381019061028f9190612aff565b6108df565b6040516102a19190612c14565b60405180910390f35b6102c460048036038101906102bf9190612c36565b61090c565b6040516102d19190612dc9565b60405180910390f35b6102f460048036038101906102ef9190612e17565b6109c2565b005b610310600480360381019061030b9190612aff565b610a30565b60405161031d9190612ef8565b60405180910390f35b610340600480360381019061033b9190612fdd565b610a42565b005b61035c60048036038101906103579190612a9e565b610b35565b6040516103699190612b3b565b60405180910390f35b61038c60048036038101906103879190612a9e565b610b3f565b6040516103999190612ae4565b60405180910390f35b6103aa610b8f565b005b6103c660048036038101906103c19190613195565b610ba3565b005b6103e260048036038101906103dd91906131f1565b610c21565b005b6103ec610c37565b6040516103f99190612b3b565b60405180910390f35b61041c6004803603810190610417919061324d565b610c60565b005b61043860048036038101906104339190612a9e565b610d43565b6040516104459190613338565b60405180910390f35b61046860048036038101906104639190612aff565b610d93565b60405161047591906133af565b60405180910390f35b610498600480360381019061049391906133d1565b610e38565b005b6104b460048036038101906104af91906126f7565b610ef2565b005b6104d060048036038101906104cb9190613478565b6110a9565b005b6104ec60048036038101906104e79190612a9e565b61110d565b005b6000634939914560e01b7bffffffffffffffffffffffffffffffffffffffffffffffffffffffff1916827bffffffffffffffffffffffffffffffffffffffffffffffffffffffff191614806105485750610547826112e9565b5b9050919050565b600061055a8261080e565b9050600061056661134a565b90508073ffffffffffffffffffffffffffffffffffffffff168273ffffffffffffffffffffffffffffffffffffffff16146105dc578183826040517f5b271ea20000000000000000000000000000000000000000000000000000000081526004016105d3939291906134e3565b60405180910390fd5b600073ffffffffffffffffffffffffffffffffffffffff168473ffffffffffffffffffffffffffffffffffffffff161415610643576040517f9577b8b300000000000000000000000000000000000000000000000000000000815260040160405180910390fd5b8373ffffffffffffffffffffffffffffffffffffffff168273ffffffffffffffffffffffffffffffffffffffff16141561067e57505061068c565b610689848385611352565b50505b5050565b6106986113d8565b80518251146106dc576040517f08c379a00000000000000000000000000000000000000000000000000000000081526004016106d39061358c565b60405180910390fd5b60005b8251811015610736576107268382815181106106fe576106fd6135ac565b5b6020026020010151838381518110610719576107186135ac565b5b602002602001015161144f565b61072f81611517565b90506106df565b505050565b6001600760003373ffffffffffffffffffffffffffffffffffffffff1673ffffffffffffffffffffffffffffffffffffffff1681526020019081526020016000205410156107be576040517f08c379a00000000000000000000000000000000000000000000000000000000081526004016107b590613627565b60405180910390fd5b600760008273ffffffffffffffffffffffffffffffffffffffff1673ffffffffffffffffffffffffffffffffffffffff1681526020019081526020016000206000905550565b6000600254905090565b6000806003600084815260200190815260200160002060009054906101000a900473ffffffffffffffffffffffffffffffffffffffff169050600073ffffffffffffffffffffffffffffffffffffffff168173ffffffffffffffffffffffffffffffffffffffff1614156108b957826040517fae8f9a360000000000000000000000000000000000000000000000000000000081526004016108b09190613647565b60405180910390fd5b80915050919050565b60006108cd82611524565b6108d78383611571565b905092915050565b60606108ea82611524565b610905600560008481526020019081526020016000206115e3565b9050919050565b6060815167ffffffffffffffff8111156109295761092861274d565b5b60405190808252806020026020018201604052801561095c57816020015b60608152602001906001900390816109475790505b50905060005b82518110156109bc5761098e838281518110610981576109806135ac565b5b6020026020010151611604565b8282815181106109a1576109a06135ac565b5b60200260200101819052506109b581611517565b9050610962565b50919050565b60006109cc61134a565b90506109d88185611571565b610a1b5783816040517f1294d2a9000000000000000000000000000000000000000000000000000000008152600401610a12929190613662565b60405180910390fd5b610a2886868686866116a9565b505050505050565b6060610a3b82611604565b9050919050565b83518551141580610a5557508251855114155b80610a6257508051855114155b15610a99576040517f93a8311900000000000000000000000000000000000000000000000000000000815260040160405180910390fd5b60005b8551811015610b2d57610b1a868281518110610abb57610aba6135ac565b5b6020026020010151868381518110610ad657610ad56135ac565b5b6020026020010151868481518110610af157610af06135ac565b5b602002602001015186868681518110610b0d57610b0c6135ac565b5b60200260200101516109c2565b8080610b25906136ba565b915050610a9c565b505050505050565b6000819050919050565b6000610b88600460008473ffffffffffffffffffffffffffffffffffffffff1673ffffffffffffffffffffffffffffffffffffffff168152602001908152602001600020611934565b9050919050565b610b976113d8565b610ba16000611191565b565b600a600083815260200190815260200160002060405180604001604052808381526020014281525090806001815401808255809150506001900390600052602060002090600202016000909190919091506000820151816000019080519060200190610c1092919061242b565b506020820151816001015550505050565b610c296113d8565b610c33828261144f565b5050565b60008060009054906101000a900473ffffffffffffffffffffffffffffffffffffffff16905090565b6001600760003373ffffffffffffffffffffffffffffffffffffffff1673ffffffffffffffffffffffffffffffffffffffff168152602001908152602001600020541015610ce3576040517f08c379a0000000000000000000000000000000000000000000000000000000008152600401610cda90613627565b60405180910390fd5b60098181548110610cf757610cf66135ac565b5b906000526020600020906004020160008082016000610d1691906124b1565b600182016000610d2691906124b1565b600282016000610d3691906124b1565b6003820160009055505050565b6060610d8c600460008473ffffffffffffffffffffffffffffffffffffffff1673ffffffffffffffffffffffffffffffffffffffff168152602001908152602001600020611949565b9050919050565b6060600860008381526020019081526020016000208054610db390613732565b80601f0160208091040260200160405190810160405280929190818152602001828054610ddf90613732565b8015610e2c5780601f10610e0157610100808354040283529160200191610e2c565b820191906000526020600020905b815481529060010190602001808311610e0f57829003601f168201915b50505050509050919050565b6000604051806080016040528085815260200184815260200183815260200142815250905060098190806001815401808255809150506001900390600052602060002090600402016000909190919091506000820151816000019080519060200190610ea592919061242b565b506020820151816001019080519060200190610ec292919061242b565b506040820151816002019080519060200190610edf92919061242b565b5060608201518160030155505050505050565b6000610efd8261080e565b90506000610f0961134a565b90508073ffffffffffffffffffffffffffffffffffffffff168273ffffffffffffffffffffffffffffffffffffffff1614610f7f578183826040517f5b271ea2000000000000000000000000000000000000000000000000000000008152600401610f76939291906134e3565b60405180910390fd5b600073ffffffffffffffffffffffffffffffffffffffff168473ffffffffffffffffffffffffffffffffffffffff161415610fe6576040517f9577b8b300000000000000000000000000000000000000000000000000000000815260040160405180910390fd5b8373ffffffffffffffffffffffffffffffffffffffff168273ffffffffffffffffffffffffffffffffffffffff1614156110215750506110a5565b611046846005600086815260200190815260200160002061195e90919063ffffffff16565b50828273ffffffffffffffffffffffffffffffffffffffff168573ffffffffffffffffffffffffffffffffffffffff167f34b797fc5a526f7bf1d2b5de25f6564fd85ae364e3ee939aee7c1ac27871a98860405160405180910390a450505b5050565b600060065460001b9050816008600083815260200190815260200160002090805190602001906110da92919061242b565b5060008290506110ed848360018461198e565b6001600660008282546111009190613764565b9250508190555050505050565b6111156113d8565b600073ffffffffffffffffffffffffffffffffffffffff168173ffffffffffffffffffffffffffffffffffffffff161415611185576040517f08c379a000000000000000000000000000000000000000000000000000000000815260040161117c9061382c565b60405180910390fd5b61118e81611191565b50565b611199610c37565b73ffffffffffffffffffffffffffffffffffffffff168173ffffffffffffffffffffffffffffffffffffffff161461128d5760008060009054906101000a900473ffffffffffffffffffffffffffffffffffffffff169050816000806101000a81548173ffffffffffffffffffffffffffffffffffffffff021916908373ffffffffffffffffffffffffffffffffffffffff1602179055508173ffffffffffffffffffffffffffffffffffffffff168173ffffffffffffffffffffffffffffffffffffffff167f8be0079c531659141344cd1fd0a4f28419497f9722a3daafe3b4186f6b6457e060405160405180910390a3505b50565b806001600084815260200190815260200160002090805190602001906112b79291906124f1565b50817fcdf4e344c0d23d4cdd0474039d176c55b19d531070dbe17856bfb993a5b5720b60405160405180910390a25050565b600063714df77c60e01b7bffffffffffffffffffffffffffffffffffffffffffffffffffffffff1916827bffffffffffffffffffffffffffffffffffffffffffffffffffffffff19161480611343575061134282611b7c565b5b9050919050565b600033905090565b6113778360056000848152602001908152602001600020611be690919063ffffffff16565b50808273ffffffffffffffffffffffffffffffffffffffff168473ffffffffffffffffffffffffffffffffffffffff167f17d5389f6ab6adb2647dfa0aa365c323d37adacc30b33a65310b6158ce1373d560405160405180910390a4505050565b3373ffffffffffffffffffffffffffffffffffffffff166113f7610c37565b73ffffffffffffffffffffffffffffffffffffffff161461144d576040517f08c379a000000000000000000000000000000000000000000000000000000000815260040161144490613898565b60405180910390fd5b565b7fdeba1e292f8ba88238e10ab3c7f88bd4be4fac56cad5194b6ecceaf653468af160001b8214156114ac576040517f85c169bd00000000000000000000000000000000000000000000000000000000815260040160405180910390fd5b7f2f0a68ab07768e01943a599e73362a0e17a63a72e94dd2e384d2c1d4db93275660001b821415611509576040517f76755b3800000000000000000000000000000000000000000000000000000000815260040160405180910390fd5b6115138282611290565b5050565b6000600182019050919050565b61152d81611c16565b61156e57806040517fae8f9a360000000000000000000000000000000000000000000000000000000081526004016115659190613647565b60405180910390fd5b50565b60008061157d8361080e565b90508073ffffffffffffffffffffffffffffffffffffffff168473ffffffffffffffffffffffffffffffffffffffff1614806115da57506115d98460056000868152602001908152602001600020611c8290919063ffffffff16565b5b91505092915050565b606060006115f383600001611cb2565b905060608190508092505050919050565b606060016000838152602001908152602001600020805461162490613732565b80601f016020809104026020016040519081016040528092919081815260200182805461165090613732565b801561169d5780601f106116725761010080835404028352916020019161169d565b820191906000526020600020905b81548152906001019060200180831161168057829003601f168201915b50505050509050919050565b60006116b48461080e565b90508573ffffffffffffffffffffffffffffffffffffffff168173ffffffffffffffffffffffffffffffffffffffff161461172a578084876040517f5b271ea2000000000000000000000000000000000000000000000000000000008152600401611721939291906134e3565b60405180910390fd5b600073ffffffffffffffffffffffffffffffffffffffff168573ffffffffffffffffffffffffffffffffffffffff161415611791576040517f24ecef4d00000000000000000000000000000000000000000000000000000000815260040160405180910390fd5b600061179b61134a565b90506117a8878787611d0e565b6117b28786611db3565b61180385600460008a73ffffffffffffffffffffffffffffffffffffffff1673ffffffffffffffffffffffffffffffffffffffff168152602001908152602001600020611e2090919063ffffffff16565b5061185585600460008973ffffffffffffffffffffffffffffffffffffffff1673ffffffffffffffffffffffffffffffffffffffff168152602001908152602001600020611e3790919063ffffffff16565b50856003600087815260200190815260200160002060006101000a81548173ffffffffffffffffffffffffffffffffffffffff021916908373ffffffffffffffffffffffffffffffffffffffff160217905550848673ffffffffffffffffffffffffffffffffffffffff168873ffffffffffffffffffffffffffffffffffffffff167fb333c813a7426a7a11e2b190cad52c44119421594b47f6f32ace6d8c7207b2bf84888860405161190a939291906138b8565b60405180910390a461191e87878786611e4e565b61192b8787878787611f4c565b50505050505050565b6000611942826000016120ee565b9050919050565b606061195782600001611cb2565b9050919050565b6000611986836000018373ffffffffffffffffffffffffffffffffffffffff1660001b6120ff565b905092915050565b600073ffffffffffffffffffffffffffffffffffffffff168473ffffffffffffffffffffffffffffffffffffffff1614156119f5576040517f24ecef4d00000000000000000000000000000000000000000000000000000000815260040160405180910390fd5b6119fe83611c16565b15611a4057826040517f34c7b511000000000000000000000000000000000000000000000000000000008152600401611a379190613647565b60405180910390fd5b6000611a4a61134a565b9050611a5860008686611d0e565b611aa984600460008873ffffffffffffffffffffffffffffffffffffffff1673ffffffffffffffffffffffffffffffffffffffff168152602001908152602001600020611e3790919063ffffffff16565b50846003600086815260200190815260200160002060006101000a81548173ffffffffffffffffffffffffffffffffffffffff021916908373ffffffffffffffffffffffffffffffffffffffff160217905550838573ffffffffffffffffffffffffffffffffffffffff16600073ffffffffffffffffffffffffffffffffffffffff167fb333c813a7426a7a11e2b190cad52c44119421594b47f6f32ace6d8c7207b2bf848787604051611b5f939291906138b8565b60405180910390a4611b75600086868686611f4c565b5050505050565b60007f01ffc9a7000000000000000000000000000000000000000000000000000000007bffffffffffffffffffffffffffffffffffffffffffffffffffffffff1916827bffffffffffffffffffffffffffffffffffffffffffffffffffffffff1916149050919050565b6000611c0e836000018373ffffffffffffffffffffffffffffffffffffffff1660001b61216f565b905092915050565b60008073ffffffffffffffffffffffffffffffffffffffff166003600084815260200190815260200160002060009054906101000a900473ffffffffffffffffffffffffffffffffffffffff1673ffffffffffffffffffffffffffffffffffffffff1614159050919050565b6000611caa836000018373ffffffffffffffffffffffffffffffffffffffff1660001b612283565b905092915050565b606081600001805480602002602001604051908101604052809291908181526020018280548015611d0257602002820191906000526020600020905b815481526020019060010190808311611cee575b50505050509050919050565b600073ffffffffffffffffffffffffffffffffffffffff168373ffffffffffffffffffffffffffffffffffffffff161415611d5e57600160026000828254611d569190613764565b925050819055505b600073ffffffffffffffffffffffffffffffffffffffff168273ffffffffffffffffffffffffffffffffffffffff161415611dae57600160026000828254611da691906138f6565b925050819055505b505050565b60006005600083815260200190815260200160002090506000611dd5826122a6565b905060005b81811015611e19576000611df86000856122bb90919063ffffffff16565b9050611e05818787611352565b508080611e11906136ba565b915050611dda565b5050505050565b6000611e2f836000018361216f565b905092915050565b6000611e4683600001836120ff565b905092915050565b611e5f84636bb56a1460e01b6122d5565b15611f4657600084848484604051602001611e7d94939291906139cf565b60405160208183030381529060405290508473ffffffffffffffffffffffffffffffffffffffff16636bb56a147f3724c94f0815e936299cca424da4140752198e0beb7931a6e0925d11bc97544c60001b836040518363ffffffff1660e01b8152600401611eec929190613a19565b600060405180830381600087803b158015611f0657600080fd5b505af1158015611f1a573d6000803e3d6000fd5b505050506040513d6000823e3d601f19601f82011682018060405250810190611f439190613ab9565b50505b50505050565b611f5d84636bb56a1460e01b6122d5565b1561204857600085858584604051602001611f7b94939291906139cf565b60405160208183030381529060405290508473ffffffffffffffffffffffffffffffffffffffff16636bb56a147fc7a120a42b6057a0cbed111fbbfbd52fcd96748c04394f77fc2c3adbe0391e0160001b836040518363ffffffff1660e01b8152600401611fea929190613a19565b600060405180830381600087803b15801561200457600080fd5b505af1158015612018573d6000803e3d6000fd5b505050506040513d6000823e3d601f19601f820116820180604052508101906120419190613ab9565b50506120e7565b816120e65760008473ffffffffffffffffffffffffffffffffffffffff163b146120a957836040517f4349776d0000000000000000000000000000000000000000000000000000000081526004016120a09190612b3b565b60405180910390fd5b836040517f031731370000000000000000000000000000000000000000000000000000000081526004016120dd9190612b3b565b60405180910390fd5b5b5050505050565b600081600001805490509050919050565b600061210b8383612283565b612164578260000182908060018154018082558091505060019003906000526020600020016000909190919091505582600001805490508360010160008481526020019081526020016000208190555060019050612169565b600090505b92915050565b600080836001016000848152602001908152602001600020549050600081146122775760006001826121a191906138f6565b90506000600186600001805490506121b991906138f6565b90508181146122285760008660000182815481106121da576121d96135ac565b5b90600052602060002001549050808760000184815481106121fe576121fd6135ac565b5b90600052602060002001819055508387600101600083815260200190815260200160002081905550505b8560000180548061223c5761223b613b02565b5b60019003818190600052602060002001600090559055856001016000868152602001908152602001600020600090556001935050505061227d565b60009150505b92915050565b600080836001016000848152602001908152602001600020541415905092915050565b60006122b4826000016120ee565b9050919050565b60006122ca8360000183612400565b60001c905092915050565b6000806301ffc9a760e01b836040516024016122f19190613b40565b604051602081830303815290604052907bffffffffffffffffffffffffffffffffffffffffffffffffffffffff19166020820180517bffffffffffffffffffffffffffffffffffffffffffffffffffffffff838183161783525050505090506000808573ffffffffffffffffffffffffffffffffffffffff166175308460405161237b9190613b5b565b6000604051808303818686fa925050503d80600081146123b7576040519150601f19603f3d011682016040523d82523d6000602084013e6123bc565b606091505b50915091506020815110156123d757600093505050506123fa565b8180156123f45750808060200190518101906123f39190613b87565b5b93505050505b92915050565b6000826000018281548110612418576124176135ac565b5b9060005260206000200154905092915050565b82805461243790613732565b90600052602060002090601f01602090048101928261245957600085556124a0565b82601f1061247257805160ff19168380011785556124a0565b828001600101855582156124a0579182015b8281111561249f578251825591602001919060010190612484565b5b5090506124ad9190612577565b5090565b5080546124bd90613732565b6000825580601f106124cf57506124ee565b601f0160209004906000526020600020908101906124ed9190612577565b5b50565b8280546124fd90613732565b90600052602060002090601f01602090048101928261251f5760008555612566565b82601f1061253857805160ff1916838001178555612566565b82800160010185558215612566579182015b8281111561256557825182559160200191906001019061254a565b5b5090506125739190612577565b5090565b5b80821115612590576000816000905550600101612578565b5090565b6000604051905090565b600080fd5b600080fd5b60007fffffffff0000000000000000000000000000000000000000000000000000000082169050919050565b6125dd816125a8565b81146125e857600080fd5b50565b6000813590506125fa816125d4565b92915050565b6000602082840312156126165761261561259e565b5b6000612624848285016125eb565b91505092915050565b60008115159050919050565b6126428161262d565b82525050565b600060208201905061265d6000830184612639565b92915050565b600073ffffffffffffffffffffffffffffffffffffffff82169050919050565b600061268e82612663565b9050919050565b61269e81612683565b81146126a957600080fd5b50565b6000813590506126bb81612695565b92915050565b6000819050919050565b6126d4816126c1565b81146126df57600080fd5b50565b6000813590506126f1816126cb565b92915050565b6000806040838503121561270e5761270d61259e565b5b600061271c858286016126ac565b925050602061272d858286016126e2565b9150509250929050565b600080fd5b6000601f19601f8301169050919050565b7f4e487b7100000000000000000000000000000000000000000000000000000000600052604160045260246000fd5b6127858261273c565b810181811067ffffffffffffffff821117156127a4576127a361274d565b5b80604052505050565b60006127b7612594565b90506127c3828261277c565b919050565b600067ffffffffffffffff8211156127e3576127e261274d565b5b602082029050602081019050919050565b600080fd5b600061280c612807846127c8565b6127ad565b9050808382526020820190506020840283018581111561282f5761282e6127f4565b5b835b81811015612858578061284488826126e2565b845260208401935050602081019050612831565b5050509392505050565b600082601f83011261287757612876612737565b5b81356128878482602086016127f9565b91505092915050565b600067ffffffffffffffff8211156128ab576128aa61274d565b5b602082029050602081019050919050565b600080fd5b600067ffffffffffffffff8211156128dc576128db61274d565b5b6128e58261273c565b9050602081019050919050565b82818337600083830152505050565b600061291461290f846128c1565b6127ad565b9050828152602081018484840111156129305761292f6128bc565b5b61293b8482856128f2565b509392505050565b600082601f83011261295857612957612737565b5b8135612968848260208601612901565b91505092915050565b600061298461297f84612890565b6127ad565b905080838252602082019050602084028301858111156129a7576129a66127f4565b5b835b818110156129ee57803567ffffffffffffffff8111156129cc576129cb612737565b5b8086016129d98982612943565b855260208501945050506020810190506129a9565b5050509392505050565b600082601f830112612a0d57612a0c612737565b5b8135612a1d848260208601612971565b91505092915050565b60008060408385031215612a3d57612a3c61259e565b5b600083013567ffffffffffffffff811115612a5b57612a5a6125a3565b5b612a6785828601612862565b925050602083013567ffffffffffffffff811115612a8857612a876125a3565b5b612a94858286016129f8565b9150509250929050565b600060208284031215612ab457612ab361259e565b5b6000612ac2848285016126ac565b91505092915050565b6000819050919050565b612ade81612acb565b82525050565b6000602082019050612af96000830184612ad5565b92915050565b600060208284031215612b1557612b1461259e565b5b6000612b23848285016126e2565b91505092915050565b612b3581612683565b82525050565b6000602082019050612b506000830184612b2c565b92915050565b600081519050919050565b600082825260208201905092915050565b6000819050602082019050919050565b612b8b81612683565b82525050565b6000612b9d8383612b82565b60208301905092915050565b6000602082019050919050565b6000612bc182612b56565b612bcb8185612b61565b9350612bd683612b72565b8060005b83811015612c07578151612bee8882612b91565b9750612bf983612ba9565b925050600181019050612bda565b5085935050505092915050565b60006020820190508181036000830152612c2e8184612bb6565b905092915050565b600060208284031215612c4c57612c4b61259e565b5b600082013567ffffffffffffffff811115612c6a57612c696125a3565b5b612c7684828501612862565b91505092915050565b600081519050919050565b600082825260208201905092915050565b6000819050602082019050919050565b600081519050919050565b600082825260208201905092915050565b60005b83811015612ce5578082015181840152602081019050612cca565b83811115612cf4576000848401525b50505050565b6000612d0582612cab565b612d0f8185612cb6565b9350612d1f818560208601612cc7565b612d288161273c565b840191505092915050565b6000612d3f8383612cfa565b905092915050565b6000602082019050919050565b6000612d5f82612c7f565b612d698185612c8a565b935083602082028501612d7b85612c9b565b8060005b85811015612db75784840389528151612d988582612d33565b9450612da383612d47565b925060208a01995050600181019050612d7f565b50829750879550505050505092915050565b60006020820190508181036000830152612de38184612d54565b905092915050565b612df48161262d565b8114612dff57600080fd5b50565b600081359050612e1181612deb565b92915050565b600080600080600060a08688031215612e3357612e3261259e565b5b6000612e41888289016126ac565b9550506020612e52888289016126ac565b9450506040612e63888289016126e2565b9350506060612e7488828901612e02565b925050608086013567ffffffffffffffff811115612e9557612e946125a3565b5b612ea188828901612943565b9150509295509295909350565b600082825260208201905092915050565b6000612eca82612cab565b612ed48185612eae565b9350612ee4818560208601612cc7565b612eed8161273c565b840191505092915050565b60006020820190508181036000830152612f128184612ebf565b905092915050565b600067ffffffffffffffff821115612f3557612f3461274d565b5b602082029050602081019050919050565b6000612f59612f5484612f1a565b6127ad565b90508083825260208201905060208402830185811115612f7c57612f7b6127f4565b5b835b81811015612fa55780612f9188826126ac565b845260208401935050602081019050612f7e565b5050509392505050565b600082601f830112612fc457612fc3612737565b5b8135612fd4848260208601612f46565b91505092915050565b600080600080600060a08688031215612ff957612ff861259e565b5b600086013567ffffffffffffffff811115613017576130166125a3565b5b61302388828901612faf565b955050602086013567ffffffffffffffff811115613044576130436125a3565b5b61305088828901612faf565b945050604086013567ffffffffffffffff811115613071576130706125a3565b5b61307d88828901612862565b935050606061308e88828901612e02565b925050608086013567ffffffffffffffff8111156130af576130ae6125a3565b5b6130bb888289016129f8565b9150509295509295909350565b6130d181612acb565b81146130dc57600080fd5b50565b6000813590506130ee816130c8565b92915050565b600067ffffffffffffffff82111561310f5761310e61274d565b5b6131188261273c565b9050602081019050919050565b6000613138613133846130f4565b6127ad565b905082815260208101848484011115613154576131536128bc565b5b61315f8482856128f2565b509392505050565b600082601f83011261317c5761317b612737565b5b813561318c848260208601613125565b91505092915050565b600080604083850312156131ac576131ab61259e565b5b60006131ba858286016130df565b925050602083013567ffffffffffffffff8111156131db576131da6125a3565b5b6131e785828601613167565b9150509250929050565b600080604083850312156132085761320761259e565b5b6000613216858286016126e2565b925050602083013567ffffffffffffffff811115613237576132366125a3565b5b61324385828601612943565b9150509250929050565b6000602082840312156132635761326261259e565b5b6000613271848285016130df565b91505092915050565b600081519050919050565b600082825260208201905092915050565b6000819050602082019050919050565b6132af816126c1565b82525050565b60006132c183836132a6565b60208301905092915050565b6000602082019050919050565b60006132e58261327a565b6132ef8185613285565b93506132fa83613296565b8060005b8381101561332b57815161331288826132b5565b975061331d836132cd565b9250506001810190506132fe565b5085935050505092915050565b6000602082019050818103600083015261335281846132da565b905092915050565b600081519050919050565b600082825260208201905092915050565b60006133818261335a565b61338b8185613365565b935061339b818560208601612cc7565b6133a48161273c565b840191505092915050565b600060208201905081810360008301526133c98184613376565b905092915050565b6000806000606084860312156133ea576133e961259e565b5b600084013567ffffffffffffffff811115613408576134076125a3565b5b61341486828701613167565b935050602084013567ffffffffffffffff811115613435576134346125a3565b5b61344186828701613167565b925050604084013567ffffffffffffffff811115613462576134616125a3565b5b61346e86828701613167565b9150509250925092565b6000806040838503121561348f5761348e61259e565b5b600061349d858286016126ac565b925050602083013567ffffffffffffffff8111156134be576134bd6125a3565b5b6134ca85828601613167565b9150509250929050565b6134dd816126c1565b82525050565b60006060820190506134f86000830186612b2c565b61350560208301856134d4565b6135126040830184612b2c565b949350505050565b7f4b657973206c656e677468206e6f7420657175616c20746f2076616c7565732060008201527f6c656e6774680000000000000000000000000000000000000000000000000000602082015250565b6000613576602683613365565b91506135818261351a565b604082019050919050565b600060208201905081810360008301526135a581613569565b9050919050565b7f4e487b7100000000000000000000000000000000000000000000000000000000600052603260045260246000fd5b7f6e6f742061646d696e0000000000000000000000000000000000000000000000600082015250565b6000613611600983613365565b915061361c826135db565b602082019050919050565b6000602082019050818103600083015261364081613604565b9050919050565b600060208201905061365c60008301846134d4565b92915050565b600060408201905061367760008301856134d4565b6136846020830184612b2c565b9392505050565b7f4e487b7100000000000000000000000000000000000000000000000000000000600052601160045260246000fd5b60006136c582612acb565b91507fffffffffffffffffffffffffffffffffffffffffffffffffffffffffffffffff8214156136f8576136f761368b565b5b600182019050919050565b7f4e487b7100000000000000000000000000000000000000000000000000000000600052602260045260246000fd5b6000600282049050600182168061374a57607f821691505b6020821081141561375e5761375d613703565b5b50919050565b600061376f82612acb565b915061377a83612acb565b9250827fffffffffffffffffffffffffffffffffffffffffffffffffffffffffffffffff038211156137af576137ae61368b565b5b828201905092915050565b7f4f776e61626c653a206e6577206f776e657220697320746865207a65726f206160008201527f6464726573730000000000000000000000000000000000000000000000000000602082015250565b6000613816602683613365565b9150613821826137ba565b604082019050919050565b6000602082019050818103600083015261384581613809565b9050919050565b7f4f776e61626c653a2063616c6c6572206973206e6f7420746865206f776e6572600082015250565b6000613882602083613365565b915061388d8261384c565b602082019050919050565b600060208201905081810360008301526138b181613875565b9050919050565b60006060820190506138cd6000830186612b2c565b6138da6020830185612639565b81810360408301526138ec8184612ebf565b9050949350505050565b600061390182612acb565b915061390c83612acb565b92508282101561391f5761391e61368b565b5b828203905092915050565b60008160601b9050919050565b60006139428261392a565b9050919050565b600061395482613937565b9050919050565b61396c61396782612683565b613949565b82525050565b6000819050919050565b61398d613988826126c1565b613972565b82525050565b600081905092915050565b60006139a982612cab565b6139b38185613993565b93506139c3818560208601612cc7565b80840191505092915050565b60006139db828761395b565b6014820191506139eb828661395b565b6014820191506139fb828561397c565b602082019150613a0b828461399e565b915081905095945050505050565b6000604082019050613a2e60008301856134d4565b8181036020830152613a408184612ebf565b90509392505050565b6000613a5c613a57846128c1565b6127ad565b905082815260208101848484011115613a7857613a776128bc565b5b613a83848285612cc7565b509392505050565b600082601f830112613aa057613a9f612737565b5b8151613ab0848260208601613a49565b91505092915050565b600060208284031215613acf57613ace61259e565b5b600082015167ffffffffffffffff811115613aed57613aec6125a3565b5b613af984828501613a8b565b91505092915050565b7f4e487b7100000000000000000000000000000000000000000000000000000000600052603160045260246000fd5b613b3a816125a8565b82525050565b6000602082019050613b556000830184613b31565b92915050565b6000613b67828461399e565b915081905092915050565b600081519050613b8181612deb565b92915050565b600060208284031215613b9d57613b9c61259e565b5b6000613bab84828501613b72565b9150509291505056fea2646970667358221220a278a39e6f7841510153f4bbfaf392c68c1b6ffd33c3da3aebaa3f0bffe76f4064736f6c63430008090033",
  "linkReferences": {},
  "deployedLinkReferences": {}
}