{
  "_format": "hh-sol-artifact-1",
  "contractName": "familynft",
  "sourceName": "contracts/myfamilynft.sol",
  "abi": [
    {
      "inputs": [
        {
          "internalType": "string",
          "name": "_name",
          "type": "string"
        }
      ],
      "stateMutability": "nonpayable",
      "type": "constructor"
    },
    {
      "inputs": [
        {
          "internalType": "uint256",
          "name": "dataKeysLength",
          "type": "uint256"
        },
        {
          "internalType": "uint256",
          "name": "dataValuesLength",
          "type": "uint256"
        }
      ],
      "name": "ERC725Y_DataKeysValuesLengthMismatch",
      "type": "error"
    },
    {
      "inputs": [],
      "name": "LSP4TokenNameNotEditable",
      "type": "error"
    },
    {
      "inputs": [],
      "name": "LSP4TokenSymbolNotEditable",
      "type": "error"
    },
    {
      "inputs": [],
      "name": "LSP8CannotSendToAddressZero",
      "type": "error"
    },
    {
      "inputs": [],
      "name": "LSP8CannotSendToSelf",
      "type": "error"
    },
    {
      "inputs": [],
      "name": "LSP8CannotUseAddressZeroAsOperator",
      "type": "error"
    },
    {
      "inputs": [],
      "name": "LSP8InvalidTransferBatch",
      "type": "error"
    },
    {
      "inputs": [
        {
          "internalType": "bytes32",
          "name": "tokenId",
          "type": "bytes32"
        }
      ],
      "name": "LSP8NonExistentTokenId",
      "type": "error"
    },
    {
      "inputs": [
        {
          "internalType": "address",
          "name": "operator",
          "type": "address"
        },
        {
          "internalType": "bytes32",
          "name": "tokenId",
          "type": "bytes32"
        }
      ],
      "name": "LSP8NonExistingOperator",
      "type": "error"
    },
    {
      "inputs": [
        {
          "internalType": "bytes32",
          "name": "tokenId",
          "type": "bytes32"
        },
        {
          "internalType": "address",
          "name": "caller",
          "type": "address"
        }
      ],
      "name": "LSP8NotTokenOperator",
      "type": "error"
    },
    {
      "inputs": [
        {
          "internalType": "address",
          "name": "tokenOwner",
          "type": "address"
        },
        {
          "internalType": "bytes32",
          "name": "tokenId",
          "type": "bytes32"
        },
        {
          "internalType": "address",
          "name": "caller",
          "type": "address"
        }
      ],
      "name": "LSP8NotTokenOwner",
      "type": "error"
    },
    {
      "inputs": [
        {
          "internalType": "address",
          "name": "tokenReceiver",
          "type": "address"
        }
      ],
      "name": "LSP8NotifyTokenReceiverContractMissingLSP1Interface",
      "type": "error"
    },
    {
      "inputs": [
        {
          "internalType": "address",
          "name": "tokenReceiver",
          "type": "address"
        }
      ],
      "name": "LSP8NotifyTokenReceiverIsEOA",
      "type": "error"
    },
    {
      "inputs": [
        {
          "internalType": "address",
          "name": "operator",
          "type": "address"
        },
        {
          "internalType": "bytes32",
          "name": "tokenId",
          "type": "bytes32"
        }
      ],
      "name": "LSP8OperatorAlreadyAuthorized",
      "type": "error"
    },
    {
      "inputs": [
        {
          "internalType": "bytes32",
          "name": "tokenId",
          "type": "bytes32"
        }
      ],
      "name": "LSP8TokenIdAlreadyMinted",
      "type": "error"
    },
    {
      "inputs": [],
      "name": "LSP8TokenOwnerCannotBeOperator",
      "type": "error"
    },
    {
      "anonymous": false,
      "inputs": [
        {
          "indexed": true,
          "internalType": "address",
          "name": "operator",
          "type": "address"
        },
        {
          "indexed": true,
          "internalType": "address",
          "name": "tokenOwner",
          "type": "address"
        },
        {
          "indexed": true,
          "internalType": "bytes32",
          "name": "tokenId",
          "type": "bytes32"
        }
      ],
      "name": "AuthorizedOperator",
      "type": "event"
    },
    {
      "anonymous": false,
      "inputs": [
        {
          "indexed": true,
          "internalType": "bytes32",
          "name": "dataKey",
          "type": "bytes32"
        },
        {
          "indexed": false,
          "internalType": "bytes",
          "name": "dataValue",
          "type": "bytes"
        }
      ],
      "name": "DataChanged",
      "type": "event"
    },
    {
      "anonymous": false,
      "inputs": [
        {
          "indexed": true,
          "internalType": "address",
          "name": "previousOwner",
          "type": "address"
        },
        {
          "indexed": true,
          "internalType": "address",
          "name": "newOwner",
          "type": "address"
        }
      ],
      "name": "OwnershipTransferred",
      "type": "event"
    },
    {
      "anonymous": false,
      "inputs": [
        {
          "indexed": true,
          "internalType": "address",
          "name": "operator",
          "type": "address"
        },
        {
          "indexed": true,
          "internalType": "address",
          "name": "tokenOwner",
          "type": "address"
        },
        {
          "indexed": true,
          "internalType": "bytes32",
          "name": "tokenId",
          "type": "bytes32"
        }
      ],
      "name": "RevokedOperator",
      "type": "event"
    },
    {
      "anonymous": false,
      "inputs": [
        {
          "indexed": false,
          "internalType": "address",
          "name": "operator",
          "type": "address"
        },
        {
          "indexed": true,
          "internalType": "address",
          "name": "from",
          "type": "address"
        },
        {
          "indexed": true,
          "internalType": "address",
          "name": "to",
          "type": "address"
        },
        {
          "indexed": true,
          "internalType": "bytes32",
          "name": "tokenId",
          "type": "bytes32"
        },
        {
          "indexed": false,
          "internalType": "bool",
          "name": "allowNonLSP1Recipient",
          "type": "bool"
        },
        {
          "indexed": false,
          "internalType": "bytes",
          "name": "data",
          "type": "bytes"
        }
      ],
      "name": "Transfer",
      "type": "event"
    },
    {
      "inputs": [
        {
          "internalType": "address",
          "name": "operator",
          "type": "address"
        },
        {
          "internalType": "bytes32",
          "name": "tokenId",
          "type": "bytes32"
        }
      ],
      "name": "authorizeOperator",
      "outputs": [],
      "stateMutability": "nonpayable",
      "type": "function"
    },
    {
      "inputs": [
        {
          "internalType": "address",
          "name": "tokenOwner",
          "type": "address"
        }
      ],
      "name": "balanceOf",
      "outputs": [
        {
          "internalType": "uint256",
          "name": "",
          "type": "uint256"
        }
      ],
      "stateMutability": "view",
      "type": "function"
    },
    {
      "inputs": [
        {
          "internalType": "bytes32[]",
          "name": "dataKeys",
          "type": "bytes32[]"
        }
      ],
      "name": "getData",
      "outputs": [
        {
          "internalType": "bytes[]",
          "name": "dataValues",
          "type": "bytes[]"
        }
      ],
      "stateMutability": "view",
      "type": "function"
    },
    {
      "inputs": [
        {
          "internalType": "bytes32",
          "name": "dataKey",
          "type": "bytes32"
        }
      ],
      "name": "getData",
      "outputs": [
        {
          "internalType": "bytes",
          "name": "dataValue",
          "type": "bytes"
        }
      ],
      "stateMutability": "view",
      "type": "function"
    },
    {
      "inputs": [
        {
          "internalType": "bytes32",
          "name": "tokenId",
          "type": "bytes32"
        }
      ],
      "name": "getMetadata",
      "outputs": [
        {
          "internalType": "string",
          "name": "",
          "type": "string"
        }
      ],
      "stateMutability": "view",
      "type": "function"
    },
    {
      "inputs": [
        {
          "internalType": "bytes32",
          "name": "tokenId",
          "type": "bytes32"
        }
      ],
      "name": "getOperatorsOf",
      "outputs": [
        {
          "internalType": "address[]",
          "name": "",
          "type": "address[]"
        }
      ],
      "stateMutability": "view",
      "type": "function"
    },
    {
      "inputs": [
        {
          "internalType": "address",
          "name": "operator",
          "type": "address"
        },
        {
          "internalType": "bytes32",
          "name": "tokenId",
          "type": "bytes32"
        }
      ],
      "name": "isOperatorFor",
      "outputs": [
        {
          "internalType": "bool",
          "name": "",
          "type": "bool"
        }
      ],
      "stateMutability": "view",
      "type": "function"
    },
    {
      "inputs": [
        {
          "internalType": "address",
          "name": "to",
          "type": "address"
        },
        {
          "internalType": "string",
          "name": "data",
          "type": "string"
        }
      ],
      "name": "mint",
      "outputs": [],
      "stateMutability": "nonpayable",
      "type": "function"
    },
    {
      "inputs": [],
      "name": "owner",
      "outputs": [
        {
          "internalType": "address",
          "name": "",
          "type": "address"
        }
      ],
      "stateMutability": "view",
      "type": "function"
    },
    {
      "inputs": [],
      "name": "renounceOwnership",
      "outputs": [],
      "stateMutability": "nonpayable",
      "type": "function"
    },
    {
      "inputs": [
        {
          "internalType": "address",
          "name": "operator",
          "type": "address"
        },
        {
          "internalType": "bytes32",
          "name": "tokenId",
          "type": "bytes32"
        }
      ],
      "name": "revokeOperator",
      "outputs": [],
      "stateMutability": "nonpayable",
      "type": "function"
    },
    {
      "inputs": [
        {
          "internalType": "bytes32[]",
          "name": "dataKeys",
          "type": "bytes32[]"
        },
        {
          "internalType": "bytes[]",
          "name": "dataValues",
          "type": "bytes[]"
        }
      ],
      "name": "setData",
      "outputs": [],
      "stateMutability": "nonpayable",
      "type": "function"
    },
    {
      "inputs": [
        {
          "internalType": "bytes32",
          "name": "dataKey",
          "type": "bytes32"
        },
        {
          "internalType": "bytes",
          "name": "dataValue",
          "type": "bytes"
        }
      ],
      "name": "setData",
      "outputs": [],
      "stateMutability": "nonpayable",
      "type": "function"
    },
    {
      "inputs": [
        {
          "internalType": "bytes4",
          "name": "interfaceId",
          "type": "bytes4"
        }
      ],
      "name": "supportsInterface",
      "outputs": [
        {
          "internalType": "bool",
          "name": "",
          "type": "bool"
        }
      ],
      "stateMutability": "view",
      "type": "function"
    },
    {
      "inputs": [
        {
          "internalType": "address",
          "name": "tokenOwner",
          "type": "address"
        }
      ],
      "name": "tokenIdsOf",
      "outputs": [
        {
          "internalType": "bytes32[]",
          "name": "",
          "type": "bytes32[]"
        }
      ],
      "stateMutability": "view",
      "type": "function"
    },
    {
      "inputs": [
        {
          "internalType": "bytes32",
          "name": "tokenId",
          "type": "bytes32"
        }
      ],
      "name": "tokenOwnerOf",
      "outputs": [
        {
          "internalType": "address",
          "name": "",
          "type": "address"
        }
      ],
      "stateMutability": "view",
      "type": "function"
    },
    {
      "inputs": [],
      "name": "totalSupply",
      "outputs": [
        {
          "internalType": "uint256",
          "name": "",
          "type": "uint256"
        }
      ],
      "stateMutability": "view",
      "type": "function"
    },
    {
      "inputs": [
        {
          "internalType": "address",
          "name": "from",
          "type": "address"
        },
        {
          "internalType": "address",
          "name": "to",
          "type": "address"
        },
        {
          "internalType": "bytes32",
          "name": "tokenId",
          "type": "bytes32"
        },
        {
          "internalType": "bool",
          "name": "allowNonLSP1Recipient",
          "type": "bool"
        },
        {
          "internalType": "bytes",
          "name": "data",
          "type": "bytes"
        }
      ],
      "name": "transfer",
      "outputs": [],
      "stateMutability": "nonpayable",
      "type": "function"
    },
    {
      "inputs": [
        {
          "internalType": "address[]",
          "name": "from",
          "type": "address[]"
        },
        {
          "internalType": "address[]",
          "name": "to",
          "type": "address[]"
        },
        {
          "internalType": "bytes32[]",
          "name": "tokenId",
          "type": "bytes32[]"
        },
        {
          "internalType": "bool[]",
          "name": "allowNonLSP1Recipient",
          "type": "bool[]"
        },
        {
          "internalType": "bytes[]",
          "name": "data",
          "type": "bytes[]"
        }
      ],
      "name": "transferBatch",
      "outputs": [],
      "stateMutability": "nonpayable",
      "type": "function"
    },
    {
      "inputs": [
        {
          "internalType": "address",
          "name": "newOwner",
          "type": "address"
        }
      ],
      "name": "transferOwnership",
      "outputs": [],
      "stateMutability": "nonpayable",
      "type": "function"
    }
  ],
  "bytecode": "0x60806040523480156200001157600080fd5b50604051620040dc380380620040dc833981810160405281019062000037919062000608565b6040518060400160405280600981526020017f46414d494c594e465400000000000000000000000000000000000000000000008152506040518060400160405280600481526020017f464e4654000000000000000000000000000000000000000000000000000000008152503382828280600073ffffffffffffffffffffffffffffffffffffffff168173ffffffffffffffffffffffffffffffffffffffff1614156200011b576040517f08c379a00000000000000000000000000000000000000000000000000000000081526004016200011290620006e0565b60405180910390fd5b62000131816200022260201b62000e631760201c565b50620001a17feafec4d89fa9619884b60000a4d96624a38f7ac2d8d9a604ecf07c12c77e480c60001b6040518060400160405280600481526020017fa4d96624000000000000000000000000000000000000000000000000000000008152506200032a60201b62000f621760201c565b620001db7fdeba1e292f8ba88238e10ab3c7f88bd4be4fac56cad5194b6ecceaf653468af160001b846200032a60201b62000f621760201c565b620002157f2f0a68ab07768e01943a599e73362a0e17a63a72e94dd2e384d2c1d4db93275660001b836200032a60201b62000f621760201c565b50505050505050620007e8565b620002326200039260201b60201c565b73ffffffffffffffffffffffffffffffffffffffff168173ffffffffffffffffffffffffffffffffffffffff1614620003275760008060009054906101000a900473ffffffffffffffffffffffffffffffffffffffff169050816000806101000a81548173ffffffffffffffffffffffffffffffffffffffff021916908373ffffffffffffffffffffffffffffffffffffffff1602179055508173ffffffffffffffffffffffffffffffffffffffff168173ffffffffffffffffffffffffffffffffffffffff167f8be0079c531659141344cd1fd0a4f28419497f9722a3daafe3b4186f6b6457e060405160405180910390a3505b50565b8060016000848152602001908152602001600020908051906020019062000353929190620003bb565b50817fece574603820d07bc9b91f2a932baadf4628aabcb8afba49776529c14a6104b2826040516200038691906200075f565b60405180910390a25050565b60008060009054906101000a900473ffffffffffffffffffffffffffffffffffffffff16905090565b828054620003c990620007b2565b90600052602060002090601f016020900481019282620003ed576000855562000439565b82601f106200040857805160ff191683800117855562000439565b8280016001018555821562000439579182015b82811115620004385782518255916020019190600101906200041b565b5b5090506200044891906200044c565b5090565b5b80821115620004675760008160009055506001016200044d565b5090565b6000604051905090565b600080fd5b600080fd5b600080fd5b600080fd5b6000601f19601f8301169050919050565b7f4e487b7100000000000000000000000000000000000000000000000000000000600052604160045260246000fd5b620004d48262000489565b810181811067ffffffffffffffff82111715620004f657620004f56200049a565b5b80604052505050565b60006200050b6200046b565b9050620005198282620004c9565b919050565b600067ffffffffffffffff8211156200053c576200053b6200049a565b5b620005478262000489565b9050602081019050919050565b60005b838110156200057457808201518184015260208101905062000557565b8381111562000584576000848401525b50505050565b6000620005a16200059b846200051e565b620004ff565b905082815260208101848484011115620005c057620005bf62000484565b5b620005cd84828562000554565b509392505050565b600082601f830112620005ed57620005ec6200047f565b5b8151620005ff8482602086016200058a565b91505092915050565b60006020828403121562000621576200062062000475565b5b600082015167ffffffffffffffff8111156200064257620006416200047a565b5b6200065084828501620005d5565b91505092915050565b600082825260208201905092915050565b7f4f776e61626c653a206e6577206f776e657220697320746865207a65726f206160008201527f6464726573730000000000000000000000000000000000000000000000000000602082015250565b6000620006c860268362000659565b9150620006d5826200066a565b604082019050919050565b60006020820190508181036000830152620006fb81620006b9565b9050919050565b600081519050919050565b600082825260208201905092915050565b60006200072b8262000702565b6200073781856200070d565b93506200074981856020860162000554565b620007548162000489565b840191505092915050565b600060208201905081810360008301526200077b81846200071e565b905092915050565b7f4e487b7100000000000000000000000000000000000000000000000000000000600052602260045260246000fd5b60006002820490506001821680620007cb57607f821691505b60208210811415620007e257620007e162000783565b5b50919050565b6138e480620007f86000396000f3fe608060405234801561001057600080fd5b506004361061012c5760003560e01c806370a08231116100ad578063a3b261f211610071578063a3b261f214610353578063a5961b4c14610383578063cf5182ba146103b3578063d0def521146103cf578063f2fde38b146103eb5761012c565b806370a08231146102c3578063715018a6146102f35780637e87632c146102fd5780637f23690c146103195780638da5cb5b146103355761012c565b80632a3654a4116100f45780632a3654a4146101e757806349a6078d146102175780634e3e6e9c14610247578063511b69521461027757806354f6127f146102935761012c565b806301ffc9a7146101315780630b0c6d821461016157806314a6e2931461017d57806318160ddd14610199578063217b2270146101b7575b600080fd5b61014b600480360381019061014691906123ed565b610407565b6040516101589190612435565b60405180910390f35b61017b600480360381019061017691906124e4565b610468565b005b61019760048036038101906101929190612813565b6105c6565b005b6101a1610677565b6040516101ae91906128a4565b60405180910390f35b6101d160048036038101906101cc91906128bf565b610681565b6040516101de91906128fb565b60405180910390f35b61020160048036038101906101fc91906124e4565b610735565b60405161020e9190612435565b60405180910390f35b610231600480360381019061022c91906128bf565b610752565b60405161023e91906129d4565b60405180910390f35b610261600480360381019061025c91906129f6565b61077f565b60405161026e9190612b89565b60405180910390f35b610291600480360381019061028c9190612bd7565b610835565b005b6102ad60048036038101906102a891906128bf565b61089c565b6040516102ba9190612cb8565b60405180910390f35b6102dd60048036038101906102d89190612cda565b6108ae565b6040516102ea91906128a4565b60405180910390f35b6102fb6108fe565b005b61031760048036038101906103129190612e8d565b610912565b005b610333600480360381019061032e9190612f94565b610a2b565b005b61033d610a41565b60405161034a91906128fb565b60405180910390f35b61036d60048036038101906103689190612cda565b610a6a565b60405161037a91906130ae565b60405180910390f35b61039d600480360381019061039891906128bf565b610aba565b6040516103aa9190613125565b60405180910390f35b6103cd60048036038101906103c891906124e4565b610b5f565b005b6103e960048036038101906103e491906131e8565b610d7b565b005b61040560048036038101906104009190612cda565b610ddf565b005b600063622e7a0160e01b7bffffffffffffffffffffffffffffffffffffffffffffffffffffffff1916827bffffffffffffffffffffffffffffffffffffffffffffffffffffffff19161480610461575061046082610fc6565b5b9050919050565b600061047382610681565b90503373ffffffffffffffffffffffffffffffffffffffff168173ffffffffffffffffffffffffffffffffffffffff16146104e9578082336040517f5b271ea20000000000000000000000000000000000000000000000000000000081526004016104e093929190613253565b60405180910390fd5b600073ffffffffffffffffffffffffffffffffffffffff168373ffffffffffffffffffffffffffffffffffffffff161415610550576040517f9577b8b300000000000000000000000000000000000000000000000000000000815260040160405180910390fd5b8273ffffffffffffffffffffffffffffffffffffffff168173ffffffffffffffffffffffffffffffffffffffff1614156105b6576040517f89fdad6200000000000000000000000000000000000000000000000000000000815260040160405180910390fd5b6105c1838284611027565b505050565b6105ce6110f5565b805182511461061857815181516040517f43a3c26600000000000000000000000000000000000000000000000000000000815260040161060f92919061328a565b60405180910390fd5b60005b82518110156106725761066283828151811061063a576106396132b3565b5b6020026020010151838381518110610655576106546132b3565b5b602002602001015161116c565b61066b816112a9565b905061061b565b505050565b6000600254905090565b6000806003600084815260200190815260200160002060009054906101000a900473ffffffffffffffffffffffffffffffffffffffff169050600073ffffffffffffffffffffffffffffffffffffffff168173ffffffffffffffffffffffffffffffffffffffff16141561072c57826040517fae8f9a3600000000000000000000000000000000000000000000000000000000815260040161072391906132e2565b60405180910390fd5b80915050919050565b6000610740826112b6565b61074a8383611303565b905092915050565b606061075d826112b6565b61077860056000848152602001908152602001600020611375565b9050919050565b6060815167ffffffffffffffff81111561079c5761079b61253a565b5b6040519080825280602002602001820160405280156107cf57816020015b60608152602001906001900390816107ba5790505b50905060005b825181101561082f576108018382815181106107f4576107f36132b3565b5b6020026020010151611396565b828281518110610814576108136132b3565b5b6020026020010181905250610828816112a9565b90506107d5565b50919050565b60003390506108448185611303565b6108875783816040517f1294d2a900000000000000000000000000000000000000000000000000000000815260040161087e9291906132fd565b60405180910390fd5b610894868686868661143b565b505050505050565b60606108a782611396565b9050919050565b60006108f7600460008473ffffffffffffffffffffffffffffffffffffffff1673ffffffffffffffffffffffffffffffffffffffff168152602001908152602001600020611725565b9050919050565b6109066110f5565b6109106000610e63565b565b600085519050845181141580610929575083518114155b80610935575082518114155b80610941575081518114155b15610978576040517f93a8311900000000000000000000000000000000000000000000000000000000815260040160405180910390fd5b60005b81811015610a2257610a12878281518110610999576109986132b3565b5b60200260200101518783815181106109b4576109b36132b3565b5b60200260200101518784815181106109cf576109ce6132b3565b5b60200260200101518785815181106109ea576109e96132b3565b5b6020026020010151878681518110610a0557610a046132b3565b5b6020026020010151610835565b610a1b8161173a565b905061097b565b50505050505050565b610a336110f5565b610a3d828261116c565b5050565b60008060009054906101000a900473ffffffffffffffffffffffffffffffffffffffff16905090565b6060610ab3600460008473ffffffffffffffffffffffffffffffffffffffff1673ffffffffffffffffffffffffffffffffffffffff168152602001908152602001600020611747565b9050919050565b6060600860008381526020019081526020016000208054610ada90613355565b80601f0160208091040260200160405190810160405280929190818152602001828054610b0690613355565b8015610b535780601f10610b2857610100808354040283529160200191610b53565b820191906000526020600020905b815481529060010190602001808311610b3657829003601f168201915b50505050509050919050565b6000610b6a82610681565b90503373ffffffffffffffffffffffffffffffffffffffff168173ffffffffffffffffffffffffffffffffffffffff1614610be0578082336040517f5b271ea2000000000000000000000000000000000000000000000000000000008152600401610bd793929190613253565b60405180910390fd5b600073ffffffffffffffffffffffffffffffffffffffff168373ffffffffffffffffffffffffffffffffffffffff161415610c47576040517f9577b8b300000000000000000000000000000000000000000000000000000000815260040160405180910390fd5b8273ffffffffffffffffffffffffffffffffffffffff168173ffffffffffffffffffffffffffffffffffffffff161415610cad576040517f89fdad6200000000000000000000000000000000000000000000000000000000815260040160405180910390fd5b6000610cd4846005600086815260200190815260200160002061176890919063ffffffff16565b905080610d1a5783836040517fa7626b68000000000000000000000000000000000000000000000000000000008152600401610d11929190613387565b60405180910390fd5b828273ffffffffffffffffffffffffffffffffffffffff168573ffffffffffffffffffffffffffffffffffffffff167f34b797fc5a526f7bf1d2b5de25f6564fd85ae364e3ee939aee7c1ac27871a98860405160405180910390a450505050565b600060075460001b905081600860008381526020019081526020016000209080519060200190610dac929190612258565b506000829050610dbf8483600184611798565b600160076000828254610dd291906133df565b9250508190555050505050565b610de76110f5565b600073ffffffffffffffffffffffffffffffffffffffff168173ffffffffffffffffffffffffffffffffffffffff161415610e57576040517f08c379a0000000000000000000000000000000000000000000000000000000008152600401610e4e906134a7565b60405180910390fd5b610e6081610e63565b50565b610e6b610a41565b73ffffffffffffffffffffffffffffffffffffffff168173ffffffffffffffffffffffffffffffffffffffff1614610f5f5760008060009054906101000a900473ffffffffffffffffffffffffffffffffffffffff169050816000806101000a81548173ffffffffffffffffffffffffffffffffffffffff021916908373ffffffffffffffffffffffffffffffffffffffff1602179055508173ffffffffffffffffffffffffffffffffffffffff168173ffffffffffffffffffffffffffffffffffffffff167f8be0079c531659141344cd1fd0a4f28419497f9722a3daafe3b4186f6b6457e060405160405180910390a3505b50565b80600160008481526020019081526020016000209080519060200190610f899291906122de565b50817fece574603820d07bc9b91f2a932baadf4628aabcb8afba49776529c14a6104b282604051610fba9190612cb8565b60405180910390a25050565b600063714df77c60e01b7bffffffffffffffffffffffffffffffffffffffffffffffffffffffff1916827bffffffffffffffffffffffffffffffffffffffffffffffffffffffff19161480611020575061101f82611999565b5b9050919050565b600061104e8460056000858152602001908152602001600020611a0390919063ffffffff16565b9050806110945783826040517f4aa31a8c00000000000000000000000000000000000000000000000000000000815260040161108b929190613387565b60405180910390fd5b818373ffffffffffffffffffffffffffffffffffffffff168573ffffffffffffffffffffffffffffffffffffffff167f17d5389f6ab6adb2647dfa0aa365c323d37adacc30b33a65310b6158ce1373d560405160405180910390a450505050565b3373ffffffffffffffffffffffffffffffffffffffff16611114610a41565b73ffffffffffffffffffffffffffffffffffffffff161461116a576040517f08c379a000000000000000000000000000000000000000000000000000000000815260040161116190613513565b60405180910390fd5b565b7fdeba1e292f8ba88238e10ab3c7f88bd4be4fac56cad5194b6ecceaf653468af160001b8214156111c9576040517f85c169bd00000000000000000000000000000000000000000000000000000000815260040160405180910390fd5b7f2f0a68ab07768e01943a599e73362a0e17a63a72e94dd2e384d2c1d4db93275660001b821415611226576040517f76755b3800000000000000000000000000000000000000000000000000000000815260040160405180910390fd5b8060016000848152602001908152602001600020908051906020019061124d9291906122de565b50817fece574603820d07bc9b91f2a932baadf4628aabcb8afba49776529c14a6104b26101008351111561128e57611289836000610100611a33565b611290565b825b60405161129d9190612cb8565b60405180910390a25050565b6000600182019050919050565b6112bf81611b51565b61130057806040517fae8f9a360000000000000000000000000000000000000000000000000000000081526004016112f791906132e2565b60405180910390fd5b50565b60008061130f83610681565b90508073ffffffffffffffffffffffffffffffffffffffff168473ffffffffffffffffffffffffffffffffffffffff16148061136c575061136b8460056000868152602001908152602001600020611bbd90919063ffffffff16565b5b91505092915050565b6060600061138583600001611bed565b905060608190508092505050919050565b60606001600083815260200190815260200160002080546113b690613355565b80601f01602080910402602001604051908101604052809291908181526020018280546113e290613355565b801561142f5780601f106114045761010080835404028352916020019161142f565b820191906000526020600020905b81548152906001019060200180831161141257829003601f168201915b50505050509050919050565b8373ffffffffffffffffffffffffffffffffffffffff168573ffffffffffffffffffffffffffffffffffffffff1614156114a1576040517f5d67d6c100000000000000000000000000000000000000000000000000000000815260040160405180910390fd5b60006114ac84610681565b90508573ffffffffffffffffffffffffffffffffffffffff168173ffffffffffffffffffffffffffffffffffffffff1614611522578084876040517f5b271ea200000000000000000000000000000000000000000000000000000000815260040161151993929190613253565b60405180910390fd5b600073ffffffffffffffffffffffffffffffffffffffff168573ffffffffffffffffffffffffffffffffffffffff161415611589576040517f24ecef4d00000000000000000000000000000000000000000000000000000000815260040160405180910390fd5b6000339050611599878787611c49565b6115a38786611c4e565b6115f485600460008a73ffffffffffffffffffffffffffffffffffffffff1673ffffffffffffffffffffffffffffffffffffffff168152602001908152602001600020611cb890919063ffffffff16565b5061164685600460008973ffffffffffffffffffffffffffffffffffffffff1673ffffffffffffffffffffffffffffffffffffffff168152602001908152602001600020611ccf90919063ffffffff16565b50856003600087815260200190815260200160002060006101000a81548173ffffffffffffffffffffffffffffffffffffffff021916908373ffffffffffffffffffffffffffffffffffffffff160217905550848673ffffffffffffffffffffffffffffffffffffffff168873ffffffffffffffffffffffffffffffffffffffff167fb333c813a7426a7a11e2b190cad52c44119421594b47f6f32ace6d8c7207b2bf8488886040516116fb93929190613533565b60405180910390a461170f87878786611ce6565b61171c8787878787611de4565b50505050505050565b600061173382600001611f87565b9050919050565b6000600182019050919050565b6060600061175783600001611bed565b905060608190508092505050919050565b6000611790836000018373ffffffffffffffffffffffffffffffffffffffff1660001b611f98565b905092915050565b600073ffffffffffffffffffffffffffffffffffffffff168473ffffffffffffffffffffffffffffffffffffffff1614156117ff576040517f24ecef4d00000000000000000000000000000000000000000000000000000000815260040160405180910390fd5b61180883611b51565b1561184a57826040517f34c7b51100000000000000000000000000000000000000000000000000000000815260040161184191906132e2565b60405180910390fd5b600033905061185b60008686611c49565b60016002600082825461186e91906133df565b925050819055506118c684600460008873ffffffffffffffffffffffffffffffffffffffff1673ffffffffffffffffffffffffffffffffffffffff168152602001908152602001600020611ccf90919063ffffffff16565b50846003600086815260200190815260200160002060006101000a81548173ffffffffffffffffffffffffffffffffffffffff021916908373ffffffffffffffffffffffffffffffffffffffff160217905550838573ffffffffffffffffffffffffffffffffffffffff16600073ffffffffffffffffffffffffffffffffffffffff167fb333c813a7426a7a11e2b190cad52c44119421594b47f6f32ace6d8c7207b2bf84878760405161197c93929190613533565b60405180910390a4611992600086868686611de4565b5050505050565b60007f01ffc9a7000000000000000000000000000000000000000000000000000000007bffffffffffffffffffffffffffffffffffffffffffffffffffffffff1916827bffffffffffffffffffffffffffffffffffffffffffffffffffffffff1916149050919050565b6000611a2b836000018373ffffffffffffffffffffffffffffffffffffffff1660001b612008565b905092915050565b606081601f83611a4391906133df565b1015611a84576040517f08c379a0000000000000000000000000000000000000000000000000000000008152600401611a7b906135bd565b60405180910390fd5b8183611a9091906133df565b84511015611ad3576040517f08c379a0000000000000000000000000000000000000000000000000000000008152600401611aca90613629565b60405180910390fd5b6060821560008114611af45760405191506000825260208201604052611b45565b6040519150601f8416801560200281840101858101878315602002848b0101015b81831015611b325780518352602083019250602081019050611b15565b50868552601f19601f8301166040525050505b50809150509392505050565b60008073ffffffffffffffffffffffffffffffffffffffff166003600084815260200190815260200160002060009054906101000a900473ffffffffffffffffffffffffffffffffffffffff1673ffffffffffffffffffffffffffffffffffffffff1614159050919050565b6000611be5836000018373ffffffffffffffffffffffffffffffffffffffff1660001b61211c565b905092915050565b606081600001805480602002602001604051908101604052809291908181526020018280548015611c3d57602002820191906000526020600020905b815481526020019060010190808311611c29575b50505050509050919050565b505050565b60006005600083815260200190815260200160002090506000611c708261213f565b905060005b81811015611cb1576000611c9360008561215490919063ffffffff16565b9050611ca0818787611027565b50611caa8161173a565b9050611c75565b5050505050565b6000611cc78360000183612008565b905092915050565b6000611cde8360000183611f98565b905092915050565b611cf784636bb56a1460e01b61216e565b15611dde57600084848484604051602001611d1594939291906136ee565b60405160208183030381529060405290508473ffffffffffffffffffffffffffffffffffffffff16636bb56a147fb23eae7e6d1564b295b4c3e3be402d9a2f0776c57bdf365903496f6fa481ab0060001b836040518363ffffffff1660e01b8152600401611d84929190613738565b600060405180830381600087803b158015611d9e57600080fd5b505af1158015611db2573d6000803e3d6000fd5b505050506040513d6000823e3d601f19601f82011682018060405250810190611ddb91906137d8565b50505b50505050565b611df584636bb56a1460e01b61216e565b15611ee057600085858584604051602001611e1394939291906136ee565b60405160208183030381529060405290508473ffffffffffffffffffffffffffffffffffffffff16636bb56a147f0b084a55ebf70fd3c06fd755269dac2212c4d3f0f4d09079780bfa50c1b2984d60001b836040518363ffffffff1660e01b8152600401611e82929190613738565b600060405180830381600087803b158015611e9c57600080fd5b505af1158015611eb0573d6000803e3d6000fd5b505050506040513d6000823e3d601f19601f82011682018060405250810190611ed991906137d8565b5050611f80565b81611f7f5760008473ffffffffffffffffffffffffffffffffffffffff163b1115611f4257836040517f4349776d000000000000000000000000000000000000000000000000000000008152600401611f3991906128fb565b60405180910390fd5b836040517f03173137000000000000000000000000000000000000000000000000000000008152600401611f7691906128fb565b60405180910390fd5b5b5050505050565b600081600001805490509050919050565b6000611fa4838361211c565b611ffd578260000182908060018154018082558091505060019003906000526020600020016000909190919091505582600001805490508360010160008481526020019081526020016000208190555060019050612002565b600090505b92915050565b6000808360010160008481526020019081526020016000205490506000811461211057600060018261203a9190613821565b90506000600186600001805490506120529190613821565b90508181146120c1576000866000018281548110612073576120726132b3565b5b9060005260206000200154905080876000018481548110612097576120966132b3565b5b90600052602060002001819055508387600101600083815260200190815260200160002081905550505b856000018054806120d5576120d4613855565b5b600190038181906000526020600020016000905590558560010160008681526020019081526020016000206000905560019350505050612116565b60009150505b92915050565b600080836001016000848152602001908152602001600020541415905092915050565b600061214d82600001611f87565b9050919050565b6000612163836000018361222d565b60001c905092915050565b6000806301ffc9a760e01b8360405160240161218a9190613893565b604051602081830303815290604052907bffffffffffffffffffffffffffffffffffffffffffffffffffffffff19166020820180517bffffffffffffffffffffffffffffffffffffffffffffffffffffffff838183161783525050505090506000806000602060008551602087018a617530fa92503d91506000519050828015612215575060208210155b80156122215750600081115b94505050505092915050565b6000826000018281548110612245576122446132b3565b5b9060005260206000200154905092915050565b82805461226490613355565b90600052602060002090601f01602090048101928261228657600085556122cd565b82601f1061229f57805160ff19168380011785556122cd565b828001600101855582156122cd579182015b828111156122cc5782518255916020019190600101906122b1565b5b5090506122da9190612364565b5090565b8280546122ea90613355565b90600052602060002090601f01602090048101928261230c5760008555612353565b82601f1061232557805160ff1916838001178555612353565b82800160010185558215612353579182015b82811115612352578251825591602001919060010190612337565b5b5090506123609190612364565b5090565b5b8082111561237d576000816000905550600101612365565b5090565b6000604051905090565b600080fd5b600080fd5b60007fffffffff0000000000000000000000000000000000000000000000000000000082169050919050565b6123ca81612395565b81146123d557600080fd5b50565b6000813590506123e7816123c1565b92915050565b6000602082840312156124035761240261238b565b5b6000612411848285016123d8565b91505092915050565b60008115159050919050565b61242f8161241a565b82525050565b600060208201905061244a6000830184612426565b92915050565b600073ffffffffffffffffffffffffffffffffffffffff82169050919050565b600061247b82612450565b9050919050565b61248b81612470565b811461249657600080fd5b50565b6000813590506124a881612482565b92915050565b6000819050919050565b6124c1816124ae565b81146124cc57600080fd5b50565b6000813590506124de816124b8565b92915050565b600080604083850312156124fb576124fa61238b565b5b600061250985828601612499565b925050602061251a858286016124cf565b9150509250929050565b600080fd5b6000601f19601f8301169050919050565b7f4e487b7100000000000000000000000000000000000000000000000000000000600052604160045260246000fd5b61257282612529565b810181811067ffffffffffffffff821117156125915761259061253a565b5b80604052505050565b60006125a4612381565b90506125b08282612569565b919050565b600067ffffffffffffffff8211156125d0576125cf61253a565b5b602082029050602081019050919050565b600080fd5b60006125f96125f4846125b5565b61259a565b9050808382526020820190506020840283018581111561261c5761261b6125e1565b5b835b81811015612645578061263188826124cf565b84526020840193505060208101905061261e565b5050509392505050565b600082601f83011261266457612663612524565b5b81356126748482602086016125e6565b91505092915050565b600067ffffffffffffffff8211156126985761269761253a565b5b602082029050602081019050919050565b600080fd5b600067ffffffffffffffff8211156126c9576126c861253a565b5b6126d282612529565b9050602081019050919050565b82818337600083830152505050565b60006127016126fc846126ae565b61259a565b90508281526020810184848401111561271d5761271c6126a9565b5b6127288482856126df565b509392505050565b600082601f83011261274557612744612524565b5b81356127558482602086016126ee565b91505092915050565b600061277161276c8461267d565b61259a565b90508083825260208201905060208402830185811115612794576127936125e1565b5b835b818110156127db57803567ffffffffffffffff8111156127b9576127b8612524565b5b8086016127c68982612730565b85526020850194505050602081019050612796565b5050509392505050565b600082601f8301126127fa576127f9612524565b5b813561280a84826020860161275e565b91505092915050565b6000806040838503121561282a5761282961238b565b5b600083013567ffffffffffffffff81111561284857612847612390565b5b6128548582860161264f565b925050602083013567ffffffffffffffff81111561287557612874612390565b5b612881858286016127e5565b9150509250929050565b6000819050919050565b61289e8161288b565b82525050565b60006020820190506128b96000830184612895565b92915050565b6000602082840312156128d5576128d461238b565b5b60006128e3848285016124cf565b91505092915050565b6128f581612470565b82525050565b600060208201905061291060008301846128ec565b92915050565b600081519050919050565b600082825260208201905092915050565b6000819050602082019050919050565b61294b81612470565b82525050565b600061295d8383612942565b60208301905092915050565b6000602082019050919050565b600061298182612916565b61298b8185612921565b935061299683612932565b8060005b838110156129c75781516129ae8882612951565b97506129b983612969565b92505060018101905061299a565b5085935050505092915050565b600060208201905081810360008301526129ee8184612976565b905092915050565b600060208284031215612a0c57612a0b61238b565b5b600082013567ffffffffffffffff811115612a2a57612a29612390565b5b612a368482850161264f565b91505092915050565b600081519050919050565b600082825260208201905092915050565b6000819050602082019050919050565b600081519050919050565b600082825260208201905092915050565b60005b83811015612aa5578082015181840152602081019050612a8a565b83811115612ab4576000848401525b50505050565b6000612ac582612a6b565b612acf8185612a76565b9350612adf818560208601612a87565b612ae881612529565b840191505092915050565b6000612aff8383612aba565b905092915050565b6000602082019050919050565b6000612b1f82612a3f565b612b298185612a4a565b935083602082028501612b3b85612a5b565b8060005b85811015612b775784840389528151612b588582612af3565b9450612b6383612b07565b925060208a01995050600181019050612b3f565b50829750879550505050505092915050565b60006020820190508181036000830152612ba38184612b14565b905092915050565b612bb48161241a565b8114612bbf57600080fd5b50565b600081359050612bd181612bab565b92915050565b600080600080600060a08688031215612bf357612bf261238b565b5b6000612c0188828901612499565b9550506020612c1288828901612499565b9450506040612c23888289016124cf565b9350506060612c3488828901612bc2565b925050608086013567ffffffffffffffff811115612c5557612c54612390565b5b612c6188828901612730565b9150509295509295909350565b600082825260208201905092915050565b6000612c8a82612a6b565b612c948185612c6e565b9350612ca4818560208601612a87565b612cad81612529565b840191505092915050565b60006020820190508181036000830152612cd28184612c7f565b905092915050565b600060208284031215612cf057612cef61238b565b5b6000612cfe84828501612499565b91505092915050565b600067ffffffffffffffff821115612d2257612d2161253a565b5b602082029050602081019050919050565b6000612d46612d4184612d07565b61259a565b90508083825260208201905060208402830185811115612d6957612d686125e1565b5b835b81811015612d925780612d7e8882612499565b845260208401935050602081019050612d6b565b5050509392505050565b600082601f830112612db157612db0612524565b5b8135612dc1848260208601612d33565b91505092915050565b600067ffffffffffffffff821115612de557612de461253a565b5b602082029050602081019050919050565b6000612e09612e0484612dca565b61259a565b90508083825260208201905060208402830185811115612e2c57612e2b6125e1565b5b835b81811015612e555780612e418882612bc2565b845260208401935050602081019050612e2e565b5050509392505050565b600082601f830112612e7457612e73612524565b5b8135612e84848260208601612df6565b91505092915050565b600080600080600060a08688031215612ea957612ea861238b565b5b600086013567ffffffffffffffff811115612ec757612ec6612390565b5b612ed388828901612d9c565b955050602086013567ffffffffffffffff811115612ef457612ef3612390565b5b612f0088828901612d9c565b945050604086013567ffffffffffffffff811115612f2157612f20612390565b5b612f2d8882890161264f565b935050606086013567ffffffffffffffff811115612f4e57612f4d612390565b5b612f5a88828901612e5f565b925050608086013567ffffffffffffffff811115612f7b57612f7a612390565b5b612f87888289016127e5565b9150509295509295909350565b60008060408385031215612fab57612faa61238b565b5b6000612fb9858286016124cf565b925050602083013567ffffffffffffffff811115612fda57612fd9612390565b5b612fe685828601612730565b9150509250929050565b600081519050919050565b600082825260208201905092915050565b6000819050602082019050919050565b613025816124ae565b82525050565b6000613037838361301c565b60208301905092915050565b6000602082019050919050565b600061305b82612ff0565b6130658185612ffb565b93506130708361300c565b8060005b838110156130a1578151613088888261302b565b975061309383613043565b925050600181019050613074565b5085935050505092915050565b600060208201905081810360008301526130c88184613050565b905092915050565b600081519050919050565b600082825260208201905092915050565b60006130f7826130d0565b61310181856130db565b9350613111818560208601612a87565b61311a81612529565b840191505092915050565b6000602082019050818103600083015261313f81846130ec565b905092915050565b600067ffffffffffffffff8211156131625761316161253a565b5b61316b82612529565b9050602081019050919050565b600061318b61318684613147565b61259a565b9050828152602081018484840111156131a7576131a66126a9565b5b6131b28482856126df565b509392505050565b600082601f8301126131cf576131ce612524565b5b81356131df848260208601613178565b91505092915050565b600080604083850312156131ff576131fe61238b565b5b600061320d85828601612499565b925050602083013567ffffffffffffffff81111561322e5761322d612390565b5b61323a858286016131ba565b9150509250929050565b61324d816124ae565b82525050565b600060608201905061326860008301866128ec565b6132756020830185613244565b61328260408301846128ec565b949350505050565b600060408201905061329f6000830185612895565b6132ac6020830184612895565b9392505050565b7f4e487b7100000000000000000000000000000000000000000000000000000000600052603260045260246000fd5b60006020820190506132f76000830184613244565b92915050565b60006040820190506133126000830185613244565b61331f60208301846128ec565b9392505050565b7f4e487b7100000000000000000000000000000000000000000000000000000000600052602260045260246000fd5b6000600282049050600182168061336d57607f821691505b6020821081141561338157613380613326565b5b50919050565b600060408201905061339c60008301856128ec565b6133a96020830184613244565b9392505050565b7f4e487b7100000000000000000000000000000000000000000000000000000000600052601160045260246000fd5b60006133ea8261288b565b91506133f58361288b565b9250827fffffffffffffffffffffffffffffffffffffffffffffffffffffffffffffffff0382111561342a576134296133b0565b5b828201905092915050565b7f4f776e61626c653a206e6577206f776e657220697320746865207a65726f206160008201527f6464726573730000000000000000000000000000000000000000000000000000602082015250565b60006134916026836130db565b915061349c82613435565b604082019050919050565b600060208201905081810360008301526134c081613484565b9050919050565b7f4f776e61626c653a2063616c6c6572206973206e6f7420746865206f776e6572600082015250565b60006134fd6020836130db565b9150613508826134c7565b602082019050919050565b6000602082019050818103600083015261352c816134f0565b9050919050565b600060608201905061354860008301866128ec565b6135556020830185612426565b81810360408301526135678184612c7f565b9050949350505050565b7f736c6963655f6f766572666c6f77000000000000000000000000000000000000600082015250565b60006135a7600e836130db565b91506135b282613571565b602082019050919050565b600060208201905081810360008301526135d68161359a565b9050919050565b7f736c6963655f6f75744f66426f756e6473000000000000000000000000000000600082015250565b60006136136011836130db565b915061361e826135dd565b602082019050919050565b6000602082019050818103600083015261364281613606565b9050919050565b60008160601b9050919050565b600061366182613649565b9050919050565b600061367382613656565b9050919050565b61368b61368682612470565b613668565b82525050565b6000819050919050565b6136ac6136a7826124ae565b613691565b82525050565b600081905092915050565b60006136c882612a6b565b6136d281856136b2565b93506136e2818560208601612a87565b80840191505092915050565b60006136fa828761367a565b60148201915061370a828661367a565b60148201915061371a828561369b565b60208201915061372a82846136bd565b915081905095945050505050565b600060408201905061374d6000830185613244565b818103602083015261375f8184612c7f565b90509392505050565b600061377b613776846126ae565b61259a565b905082815260208101848484011115613797576137966126a9565b5b6137a2848285612a87565b509392505050565b600082601f8301126137bf576137be612524565b5b81516137cf848260208601613768565b91505092915050565b6000602082840312156137ee576137ed61238b565b5b600082015167ffffffffffffffff81111561380c5761380b612390565b5b613818848285016137aa565b91505092915050565b600061382c8261288b565b91506138378361288b565b92508282101561384a576138496133b0565b5b828203905092915050565b7f4e487b7100000000000000000000000000000000000000000000000000000000600052603160045260246000fd5b61388d81612395565b82525050565b60006020820190506138a86000830184613884565b9291505056fea2646970667358221220db24e3aac1bab18347b61bdb5b8e37c417ff0ff37469c3065fe832d6b24b8fea64736f6c63430008090033",
  "linkReferences": {},
  "deployedLinkReferences": {}
}